{
  "contractName": "Auction",
  "abi": [
    {
      "constant": true,
      "inputs": [],
      "name": "announcementTimes",
      "outputs": [
        {
          "internalType": "uint8",
          "name": "",
          "type": "uint8"
        }
      ],
      "payable": false,
      "stateMutability": "view",
      "type": "function"
    },
    {
      "constant": true,
      "inputs": [],
      "name": "auctioneer",
      "outputs": [
        {
          "internalType": "address",
          "name": "",
          "type": "address"
        }
      ],
      "payable": false,
      "stateMutability": "view",
      "type": "function"
    },
    {
      "constant": true,
      "inputs": [
        {
          "internalType": "address",
          "name": "",
          "type": "address"
        }
      ],
      "name": "bidders",
      "outputs": [
        {
          "internalType": "uint8",
          "name": "token",
          "type": "uint8"
        },
        {
          "internalType": "uint8",
          "name": "deposit",
          "type": "uint8"
        }
      ],
      "payable": false,
      "stateMutability": "view",
      "type": "function"
    },
    {
      "constant": true,
      "inputs": [],
      "name": "currentPrice",
      "outputs": [
        {
          "internalType": "uint8",
          "name": "",
          "type": "uint8"
        }
      ],
      "payable": false,
      "stateMutability": "view",
      "type": "function"
    },
    {
      "constant": true,
      "inputs": [],
      "name": "currentWinner",
      "outputs": [
        {
          "internalType": "address",
          "name": "",
          "type": "address"
        }
      ],
      "payable": false,
      "stateMutability": "view",
      "type": "function"
    },
    {
      "constant": true,
      "inputs": [],
      "name": "rule",
      "outputs": [
        {
          "internalType": "uint8",
          "name": "startingPrice",
          "type": "uint8"
        },
        {
          "internalType": "uint8",
          "name": "minimumStep",
          "type": "uint8"
        }
      ],
      "payable": false,
      "stateMutability": "view",
      "type": "function"
    },
    {
      "constant": true,
      "inputs": [],
      "name": "state",
      "outputs": [
        {
          "internalType": "enum Auction.State",
          "name": "",
          "type": "uint8"
        }
      ],
      "payable": false,
      "stateMutability": "view",
      "type": "function"
    },
    {
      "constant": false,
      "inputs": [
        {
          "internalType": "uint8",
          "name": "_startingPrice",
          "type": "uint8"
        },
        {
          "internalType": "uint8",
          "name": "_minimumStep",
          "type": "uint8"
        }
      ],
      "name": "auction",
      "outputs": [],
      "payable": false,
      "stateMutability": "nonpayable",
      "type": "function"
    },
    {
      "constant": false,
      "inputs": [
        {
          "internalType": "address",
          "name": "_account",
          "type": "address"
        },
        {
          "internalType": "uint8",
          "name": "_token",
          "type": "uint8"
        }
      ],
      "name": "register",
      "outputs": [],
      "payable": false,
      "stateMutability": "nonpayable",
      "type": "function"
    },
    {
      "constant": false,
      "inputs": [],
      "name": "startSession",
      "outputs": [],
      "payable": false,
      "stateMutability": "nonpayable",
      "type": "function"
    },
    {
      "constant": false,
      "inputs": [
        {
          "internalType": "uint8",
          "name": "_price",
          "type": "uint8"
        }
      ],
      "name": "bid",
      "outputs": [],
      "payable": false,
      "stateMutability": "nonpayable",
      "type": "function"
    },
    {
      "constant": false,
      "inputs": [],
      "name": "announce",
      "outputs": [],
      "payable": false,
      "stateMutability": "nonpayable",
      "type": "function"
    },
    {
      "constant": false,
      "inputs": [],
      "name": "getDeposit",
      "outputs": [],
      "payable": false,
      "stateMutability": "nonpayable",
      "type": "function"
    }
  ],
  "bytecode": "0x608060405260008060006101000a81548160ff0219169083600381111561002257fe5b021790555060008060016101000a81548160ff021916908360ff16021790555060008060026101000a81548160ff021916908360ff1602179055506000600360146101000a81548161ffff021916908361ffff16021790555034801561008757600080fd5b5061093a806100976000396000f3fe608060405234801561001057600080fd5b50600436106100cf5760003560e01c8063aabe2fe31161008c578063c399ec8811610066578063c399ec88146102b3578063e4f8c1b6146102bd578063fcc8f793146102e1578063fe0ae1651461034c576100cf565b8063aabe2fe3146101ff578063b34deae414610249578063c19d93fb14610287576100cf565b806307e49598146100d457806325e3d5221461012557806333500e26146101565780635ec2c7bf146101875780638f970df0146101d15780639d1b464a146101db575b600080fd5b610123600480360360408110156100ea57600080fd5b81019080803573ffffffffffffffffffffffffffffffffffffffff169060200190929190803560ff169060200190929190505050610356565b005b61012d6103d9565b604051808360ff1660ff1681526020018260ff1660ff1681526020019250505060405180910390f35b6101856004803603602081101561016c57600080fd5b81019080803560ff169060200190929190505050610405565b005b61018f6105c9565b604051808273ffffffffffffffffffffffffffffffffffffffff1673ffffffffffffffffffffffffffffffffffffffff16815260200191505060405180910390f35b6101d96105ef565b005b6101e3610663565b604051808260ff1660ff16815260200191505060405180910390f35b610207610676565b604051808273ffffffffffffffffffffffffffffffffffffffff1673ffffffffffffffffffffffffffffffffffffffff16815260200191505060405180910390f35b6102856004803603604081101561025f57600080fd5b81019080803560ff169060200190929190803560ff16906020019092919050505061069c565b005b61028f610738565b6040518082600381111561029f57fe5b60ff16815260200191505060405180910390f35b6102bb61074a565b005b6102c561088f565b604051808260ff1660ff16815260200191505060405180910390f35b610323600480360360208110156102f757600080fd5b81019080803573ffffffffffffffffffffffffffffffffffffffff1690602001909291905050506108a2565b604051808360ff1660ff1681526020018260ff1660ff1681526020019250505060405180910390f35b6103546108e0565b005b6000600460008473ffffffffffffffffffffffffffffffffffffffff1673ffffffffffffffffffffffffffffffffffffffff1681526020019081526020016000209050818160000160006101000a81548160ff021916908360ff16021790555060008160000160016101000a81548160ff021916908360ff160217905550505050565b60018060000160009054906101000a900460ff16908060000160019054906101000a900460ff16905082565b60003390506000600460008373ffffffffffffffffffffffffffffffffffffffff1673ffffffffffffffffffffffffffffffffffffffff1681526020019081526020016000209050600160000160019054906101000a900460ff16600060029054906101000a900460ff160160ff168360ff16101561048357600080fd5b8060000160019054906101000a900460ff168160000160009054906101000a900460ff160160ff168360ff1611156104ba57600080fd5b8060000160019054906101000a900460ff1683038160000160009054906101000a900460ff16038160000160006101000a81548160ff021916908360ff160217905550828160000160016101000a81548160ff021916908360ff1602179055508260ff16600360148282829054906101000a900461ffff160192506101000a81548161ffff021916908361ffff16021790555082600060026101000a81548160ff021916908360ff16021790555081600260006101000a81548173ffffffffffffffffffffffffffffffffffffffff021916908373ffffffffffffffffffffffffffffffffffffffff16021790555060008060016101000a81548160ff021916908360ff160217905550505050565b600360009054906101000a900473ffffffffffffffffffffffffffffffffffffffff1681565b6003600060019054906101000a900460ff1660ff16101561063d576001600060018282829054906101000a900460ff160192506101000a81548160ff021916908360ff160217905550610661565b60026000806101000a81548160ff0219169083600381111561065b57fe5b02179055505b565b600060029054906101000a900460ff1681565b600260009054906101000a900473ffffffffffffffffffffffffffffffffffffffff1681565b33600360006101000a81548173ffffffffffffffffffffffffffffffffffffffff021916908373ffffffffffffffffffffffffffffffffffffffff16021790555081600160000160006101000a81548160ff021916908360ff16021790555080600160000160016101000a81548160ff021916908360ff16021790555081600060026101000a81548160ff021916908360ff1602179055505050565b6000809054906101000a900460ff1681565b6000339050600260009054906101000a900473ffffffffffffffffffffffffffffffffffffffff1673ffffffffffffffffffffffffffffffffffffffff168173ffffffffffffffffffffffffffffffffffffffff1614156107aa57600080fd5b6000600460008373ffffffffffffffffffffffffffffffffffffffff1673ffffffffffffffffffffffffffffffffffffffff16815260200190815260200160002090508060000160019054906101000a900460ff168160000160008282829054906101000a900460ff160192506101000a81548160ff021916908360ff16021790555060008160000160016101000a81548160ff021916908360ff1602179055506000600360149054906101000a900461ffff1661ffff161161088b5760036000806101000a81548160ff0219169083600381111561088557fe5b02179055505b5050565b600060019054906101000a900460ff1681565b60046020528060005260406000206000915090508060000160009054906101000a900460ff16908060000160019054906101000a900460ff16905082565b60016000806101000a81548160ff021916908360038111156108fe57fe5b021790555056fea265627a7a7231582021597fb1f39269601491cc85d8e37922715e3c22e5f12c3327210df9796c6be664736f6c63430005100032",
  "source": "// SPDX-License-Identifier: GPL-3.0\npragma solidity ^0.5.16;\n\ncontract Auction {\n    \n    // Data\n    \n    // Structure to hold details of Bidder\n    struct IBidder {\n        uint8 token;\n        uint8 deposit;\n    }\n    \n    // Structure to hold details of Rule\n    struct IRule {\n        uint8 startingPrice;\n        uint8 minimumStep;\n    }\n    \n    \n    // State Enum to define Auction's state\n    enum State { CREATED, STARTED, CLOSING, CLOSED }\n    \n    State public state = State.CREATED; // State of Auction\n    \n    uint8 public announcementTimes = 0; // Number of announcements\n    uint8 public currentPrice = 0; // Latest price is bid.\n    IRule public rule; // Rule of this session\n    address public currentWinner; // Current Winner, who bid the highest price.\n    address public auctioneer;\n    \n    uint16 private totalDeposit = 0;\n    \n    mapping(address => IBidder) public bidders; // Mapping to hold bidders' information\n    \n    function auction(uint8 _startingPrice, uint8 _minimumStep) public {\n        \n        // Task #1 - Initialize the Smart contract\n        // + Initialize Auctioneer with address of smart contract's owner\n        // + Set the starting price & minimumStep\n        // + Set the current price as the Starting price\n        \n        \n        // ** Start code here. 4 lines approximately. ** /\n        auctioneer = msg.sender;\n       \n        rule.startingPrice = _startingPrice;\n        rule.minimumStep = _minimumStep;\n        currentPrice = _startingPrice;\n        // ** End code here. ** /\n    }\n    \n    \n    // Register new Bidder\n    function register(address _account, uint8 _token) public { \n        \n                \n        // Task #2 - Register the bidder\n        // + Initialize a Bidder with address and token are given.\n        // + Initialize a Bidder's deposit with 0\n        \n        \n        // ** Start code here. 3 lines approximately. ** /\n        // ** End code here. **/\n        IBidder storage currentBidder = bidders[_account];\n        currentBidder.token = _token;\n        currentBidder.deposit = 0;\n        // ** End code here. **/\n    }\n\n    \n    // Start the session.\n    function startSession() public {\n        state = State.STARTED;\n    }\n    \n\n    \n    function bid(uint8 _price) public {\n        \n        // Task #3 - Bid by Bidders\n        // + Check the price with currentPirce and minimumStep. Revert if invalid.\n        // + Check if the Bidder has enough token to bid. Revert if invalid.\n        // + Move token to Deposit.\n        \n        address bidderAddr = msg.sender;\n        IBidder storage currentBidder = bidders[bidderAddr];\n        \n        // ** Start code here.  ** /\n\n        if (_price < currentPrice + rule.minimumStep) revert();\n        \n        if (_price > currentBidder.token + currentBidder.deposit) revert();\n        \n        currentBidder.token =  currentBidder.token - (_price - currentBidder.deposit);\n        currentBidder.deposit = _price;\n        \n        // ** End code here. **/\n        \n        // Tracking deposit\n        totalDeposit += _price;\n        \n        // Update the price and the winner after this bid.\n        currentPrice = _price;\n        currentWinner = bidderAddr;\n        \n        // Reset the Annoucements Counter\n        announcementTimes = 0;\n    }\n    \n    function announce() public {\n        \n        // Task #4 - Handle announcement.\n        // + When Auctioneer annouce, increase the counter.\n        // + When Auctioneer annouced more than 3 times, switch session to Closing state.\n        \n        // ** Start code here.  ** /\n        if (announcementTimes < 3) {\n            announcementTimes += 1;\n        } else {\n            state = State.CLOSING;\n        }\n        // ** End code here. **/\n    }\n    \n    function getDeposit() public {\n        \n        // Task #5 - Handle get Deposit.\n        // + Allow bidder to\n        \n        // ** Start code here.  ** /\n        // HINT: Remember to decrease totalDeposit.\n        address bidderAddr = msg.sender;\n        \n        if(bidderAddr == currentWinner) revert();\n        \n        IBidder storage currentBidder = bidders[bidderAddr];\n        \n        currentBidder.token += currentBidder.deposit;\n        currentBidder.deposit = 0;\n       // ** End code here ** /\n       \n       if (totalDeposit <= 0) {\n           state = State.CLOSED;\n       }\n    }\n}\n\n\n\n\n// PART 2 - Using Modifier to:\n// - Check if the action (startSession, register, bid, annoucement, getDeposit) can be done in current State.\n// - Check if the current user can do the action.",
  "sourcePath": "/Users/dandev947366/Desktop/Auction-ASM3/contracts/Auction.sol",
  "compiler": {
    "name": "solc",
    "version": "0.5.16+commit.9c3226ce.Emscripten.clang"
  },
  "schemaVersion": "3.4.11",
  "updatedAt": "2022-12-31T13:35:32.750Z",
  "networkType": "ethereum",
  "devdoc": {
    "methods": {}
  },
  "userdoc": {
    "methods": {}
  }
}